{
  "abi": [
    {
      "stateMutability": "payable",
      "type": "fallback"
    },
    {
      "inputs": [],
      "name": "sold",
      "outputs": [
        {
          "internalType": "uint256",
          "name": "",
          "type": "uint256"
        }
      ],
      "stateMutability": "view",
      "type": "function"
    },
    {
      "inputs": [
        {
          "internalType": "address payable",
          "name": "_to",
          "type": "address"
        },
        {
          "internalType": "uint256",
          "name": "_amount",
          "type": "uint256"
        }
      ],
      "name": "transferETH",
      "outputs": [],
      "stateMutability": "payable",
      "type": "function"
    }
  ],
  "bytecode": {
    "object": "0x6080604052600180546001600160a01b03191673a9e095a27cf64dfd0a8a8c3ecaa9c92039c7d2e617905534801561003657600080fd5b50610323806100466000396000f3fe6080604052600436106100295760003560e01c806302c7e7af1461014f5780637b1a490914610177575b60b46000541061006b5760405162461bcd60e51b815260206004820152600860248201526714dbdb190813dd5d60c21b60448201526064015b60405180910390fd5b346714d1120d7b16000014806100885750346706f05b59d3b20000145b8061009a57503467027f7d0bdb920000145b6100dc5760405162461bcd60e51b8152602060048201526013602482015272125b9d985b1a5908105b5bdd5b9d0814d95b9d606a1b6044820152606401610062565b346714d1120d7b1600000361010857600a6000808282546100fd9190610283565b9091555061014d9050565b346706f05b59d3b20000036101295760036000808282546100fd9190610283565b3467027f7d0bdb9200000361014d576000805490806101478361029c565b91905055505b005b34801561015b57600080fd5b5061016560005481565b60405190815260200160405180910390f35b61014d6101853660046102b5565b6001546001600160a01b031633146101cb5760405162461bcd60e51b81526020600482015260096024820152682737ba1037bbb732b960b91b6044820152606401610062565b600080836001600160a01b03168360405160006040518083038185875af1925050503d8060008114610219576040519150601f19603f3d011682016040523d82523d6000602084013e61021e565b606091505b5091509150816102675760405162461bcd60e51b81526020600482015260146024820152732330b4b632b2103a379039b2b7321022ba3432b960611b6044820152606401610062565b50505050565b634e487b7160e01b600052601160045260246000fd5b808201808211156102965761029661026d565b92915050565b6000600182016102ae576102ae61026d565b5060010190565b600080604083850312156102c857600080fd5b82356001600160a01b03811681146102df57600080fd5b94602093909301359350505056fea26469706673582212209c17fcf80e19aa73e968e129430d3568153e77b1455229983e680a9f55a58dde64736f6c63430008110033",
    "linkReferences": {}
  },
  "methodIdentifiers": {
    "sold()": "02c7e7af",
    "transferETH(address,uint256)": "7b1a4909"
  },
  "id": 14
}