{
  "abi": [
    {
      "stateMutability": "payable",
      "type": "fallback"
    },
    {
      "inputs": [],
      "name": "sold",
      "outputs": [
        {
          "internalType": "uint256",
          "name": "",
          "type": "uint256"
        }
      ],
      "stateMutability": "view",
      "type": "function"
    }
  ],
  "bytecode": {
    "object": "0x6080604052600180546001600160a01b03191673a9e095a27cf64dfd0a8a8c3ecaa9c92039c7d2e617905534801561003657600080fd5b506101ea806100466000396000f3fe60806040526004361061001e5760003560e01c806302c7e7af14610144575b60b4600054106100605760405162461bcd60e51b815260206004820152600860248201526714dbdb190813dd5d60c21b60448201526064015b60405180910390fd5b346714d1120d7b160000148061007d5750346706f05b59d3b20000145b8061008f57503467027f7d0bdb920000145b6100d15760405162461bcd60e51b8152602060048201526013602482015272125b9d985b1a5908105b5bdd5b9d0814d95b9d606a1b6044820152606401610057565b346714d1120d7b160000036100fd57600a6000808282546100f29190610182565b909155506101429050565b346706f05b59d3b200000361011e5760036000808282546100f29190610182565b3467027f7d0bdb920000036101425760008054908061013c8361019b565b91905055505b005b34801561015057600080fd5b5061015a60005481565b60405190815260200160405180910390f35b634e487b7160e01b600052601160045260246000fd5b808201808211156101955761019561016c565b92915050565b6000600182016101ad576101ad61016c565b506001019056fea264697066735822122005f3c4706197187a7527a7df54e67b4f4279fdff36e31cf08125777c3ce0444d64736f6c63430008110033",
    "linkReferences": {}
  },
  "methodIdentifiers": {
    "sold()": "02c7e7af"
  },
  "id": 0
}